:020000040800F2
:1000000090CB0120292200084D2300085523000829
:100010005D230008652300086D2300080000000030
:10002000000000000000000000000000898E0008B1
:100030007523000800000000998F0008F18F000868
:1000400095220008952200089522000895220008B4
:1000500095220008952200089522000895220008A4
:100060009522000895220008952200089522000894
:100070009522000895220008952200089522000884
:100080009522000895220008952200089522000874
:100090009522000895220008952200089522000864
:1000A0009522000895220008952200089522000854
:1000B0009522000895220008952200089522000844
:1000C0009522000895220008952200089522000834
:1000D0009522000895220008952200089522000824
:1000E0009522000895220008952200089522000814
:1000F0009522000895220008952200089522000804
:1001000095220008952200089522000895220008F3
:1001100095220008952200089522000895220008E3
:1001200095220008952200089522000895220008D3
:1001300095220008952200089522000895220008C3
:1001400095220008952200089522000895220008B3
:1001500095220008952200089522000895220008A3
:100160009522000895220008952200089522000893
:100170009522000895220008952200089522000883
:10018000952200089522000810B5054C237833B954
:10019000044B13B10448AFF300800123237010BD5A
:1001A000541600200000000070D90E0808B5064B58
:1001B0001BB106480649AFF300800648036813B137
:1001C000054B03B1984708BD0000000070D90E0828
:1001D000581600205016002000000000B0B59CB05A
:1001E00000AFF860B9607A603B603C4B07F11404E3
:1001F0001D460FCD0FC40FCD0FC40FCD0FC495E812
:100200000F0084E80F00FB68D7F8802002FB03F39F
:10021000FB60BB68D7F8802002FB03F3BB607B6800
:10022000D7F8802002FB03F37B603B682C4A02FB7B
:1002300003F37B660023BB660023FB6646E0BA6ED1
:100240007B6E134418461FF015FA3866BA6E7B6E43
:10025000134418461FF050FAF8657B68FA6D02FBEC
:1002600003F31B0CBB657B683A6E02FB03F31B0CAC
:100270007B65FA6E1B4B1340002B03DA013B63F0E6
:100280000F0301339B0007F17002134453F85C3CE9
:10029000184621F039F82AF06BF9D7F880002AF0D7
:1002A00057F9FA68BB6D1A44B9687B6D0B44104668
:1002B00019467A682AF0E8F92AF052F9BB6E03F57C
:1002C000AF436433BB66FB6E0133FB66BA6E064B0D
:1002D0009A42B4D97037BD46B0BD00BFB808030814
:1002E00018FCFFFF0F0000803F7E050090B587B02F
:1002F00002AF786039607A6807F1080310685168C6
:1003000003C307F10803184621F000F807F10803BA
:1003100018462D21002223F0A3FCBB899BB2143385
:100320009BB29BB2BB813B891AB2BB891BB21344FF
:10033000DA0F13445B101A467B8919B2FB891BB292
:100340000B44D90F0B445B10042100911046194651
:1003500023220023FFF742FF6FF07F4020F0D4FFFD
:1003600007F10803604819460E22012328F0BAF865
:1003700007F1080318464121002223F071FC3B8954
:1003800018B27B8919B2BB891AB2FB891BB200244F
:1003900000946FF07F44019427F036FD7B899AB278
:1003A0003B689BB213449BB29BB2FB81FF2020F0C1
:1003B000ABFF07F108034D4819460E2228F0F5F966
:1003C00007F10803184600213A6823F049FC4FF46E
:1003D0007F4020F099FF07F10803444819460E2298
:1003E00028F0E3F907F10803184600213A6823F0E2
:1003F00037FC4FF47F0020F087FF07F108033B48EC
:1004000019460E2228F0D1F93A681346DB079B1AE9
:100410005B0007F10802104600211A4623F020FC79
:100420007B899AB23B689BB2194649000B449BB248
:1004300013449BB29BB2FB8107F10803184641218C
:10044000002223F00DFC7B899AB23B689BB21344D7
:100450009BB29BB2FB81FF2020F054FF28F052FC9E
:1004600007F10803184600213A6823F0F9FB4FF41E
:100470007F4020F047FF28F045FC07F108031846AD
:1004800000213A6823F0ECFB4FF47F0020F03AFFA4
:1004900028F038FC3A681346DB079B1A5B0007F12B
:1004A0000802104600211A4623F0DAFB7B899AB233
:1004B0003B689BB2194649000B449BB213449BB264
:1004C0009BB2FB816FF07F4020F01EFF07F1080315
:1004D000054819460E22012328F004F8002020F0D8
:1004E00015FF1437BD4690BDF8080308040903083A
:1004F00080B582B000AF78603960084820F0CCFE4B
:100500006FF07F4020F000FF786839680E220123E9
:1005100027F0E8FF0837BD4680BD00BFD0910E0828
:1005200080B584B000AF214820F0B6FE2048A0215D
:100530000C2228F03FF90023BB802B23FB802723CC
:100540003B81FB889BB25F339BB29BB27B817B89F3
:100550001AB2FB881BB2D31A164A82FB0312DB17AE
:10056000D31AFB603B1D14481946FFF7C1FF13481F
:1005700020F092FE3B1D1846F968FFF7B7FE3B1DC1
:1005800018460021652223F06BFB3B1D0C481946E1
:10059000FFF7AEFF0B4820F07FFE3B1D1846F968C1
:1005A000FFF7A4FE1037BD4680BD00BF544D0B08B9
:1005B000080903085655555520090308CC7F0B0838
:1005C0003409030824810B0880B582B000AF0B48C2
:1005D0000B4900F049FD012000F0A6FC012026F0A7
:1005E0003DFE7860FFF79CFF4FF47A6000F0E8FD75
:1005F000786826F033FE0837BD4680BD48090308F9
:100600005C09030880B400AF064B00221A60064B59
:1006100000221A60054B00221A60BD465DF8047B7B
:10062000704700BF981600209016002094160020F6
:1006300080B582B000AF78604FF4080020F062FE11
:1006400028F060FB7B68002B04D0044805210522BC
:1006500027F012FF0837BD4680BD00BFE0780C08C8
:1006600080B586B002AF78601EF07CFAF8601EF0AC
:1006700081FAB8600A4B00934FF4080301930020FD
:100680000021FA68BB6827F08DFB7B68002B04D043
:1006900004480521052227F0EFFE1037BD4680BD36
:1006A0005555FF00E0780C0880B590B004AF786035
:1006B0001EF058FA78621EF05DFA38621EF06AFA8F
:1006C000F861FA693B6A9A4209DD4FF4080020F0AC
:1006D00019FE002000217A6AFB6928F0E1FA454BF7
:1006E0001B68002B75D1C923BB6101230093424BCA
:1006F0000193424B029300200021BA69BB691BF0B1
:1007000065FE786101230093002000217A6A3B6A2C
:100710001DF0E6FB0246374B1A6001230093364B6F
:100720000193364B029300200021012264231BF029
:100730004DFE386178691DF013FCF8604FF4080035
:1007400020F0E0FD28F0DEFA38691DF009FC2C4BA2
:1007500000934FF40803019300200021002264233A
:1007600027F020FB38691BF025FEB86278691DF080
:10077000F7FB0023FB620FE0BB6A1B68184620F002
:10078000C3FD64206421FA6A28F0D0FBFB6A0133C0
:10079000FB62BB6A0433BB62FB6A632BECDD154B67
:1007A0001B6818461DF0DCFB3B6A00937B6A0193D3
:1007B000002302937869002100223B6A1BF09EF817
:1007C00078691DF06BFB38691DF068FBF8681DF057
:1007D000C7FB084B1B6818461AF08AFA7B68002B87
:1007E00004D008480521052227F046FE3037BD46D3
:1007F00080BD00BFA8160020F0150E0820C90E0805
:100800005555FF00E0780C0880B582B000AF074B6B
:100810001B6818464FF4047118F069FF7860786817
:1008200018F0C8FD0837BD4680BD00BF7C1600200B
:1008300080B582B000AF074B1B6818464FF40471B7
:1008400018F055FF7860786817F098FB0837BD46B8
:1008500080BD00BF7C16002080B584B000AF7860FA
:100860007B681B680F2B04D01E2B09D00E2B0BD0DE
:100870001BE0114B1B68114A12781046984718E08C
:100880007B680022DA6014E07B68DB68FB60FB6851
:100890005B68002B08D0FB681B686E2B00D008E05B
:1008A000074B01221A6000BF03E078681AF01EF9B6
:1008B00000BF1037BD4680BD84160020A41600205E
:1008C0009C16002080B586B000AF786039603B6828
:1008D0001B687B6126F0BCF907F10803184623F07A
:1008E00013F93B7C002B04D03B6801221A600023E3
:1008F00014E03B7C002B0AD17B69012B07D13B68BC
:1009000000221A60074B01221A60012306E000F062
:10091000ABFA0246034B1A60024B1B6818461837A5
:10092000BD4680BD9C16002080B58AB002AF7860BD
:100930007B681B680E3B182B00F2D38001A252F893
:1009400023F000BFA90900082B0A0008E30A0008E9
:10095000E30A0008E30A0008E30A0008E30A0008C3
:10096000E30A0008E30A0008E30A0008E30A0008B3
:10097000E30A0008E30A0008E30A0008E30A0008A3
:10098000B9090008E30A0008E30A0008E30A0008BE
:10099000E30A0008E30A0008E30A0008E30A000883
:1009A000E30A00085F0A000818F0A6FE034618468E
:1009B000796819F01BFC97E07B685B6818464FF478
:1009C000047118F094FEF861F8690E210FF0A0F898
:1009D000F86947490FF0C7F87B685B6818464FF421
:1009E000006118F084FEF861F869002117F0FEF844
:1009F0007B685B68184640F6010118F078FEF861E4
:100A0000F869002117F0F2F87B685B6818464FF42C
:100A1000B07118F06CFEF861F86936490CF0EDFF22
:100A2000F86935490DF011F85EE07B685B6818469F
:100A300018F000FDB8617B685B68184618F00EFD81
:100A40007861BB695A1E7B69013B6FF07F41009161
:100A50002A4901910020002127F0A4F944E07B6895
:100A60009B68184618F0FCFD38617B68DB68FB600A
:100A7000FB68022B00D037E03B69B3F5006F04D070
:100A800040F60102934224D029E01D4B1B68002B45
:100A90000ED01B4B00221A6020F08DFB0246194B32
:100AA0001B68D21A184B1A60002018F03BFC16E0A5
:100AB000134B01221A6020F07EFB0246124B1B688A
:100AC000D21A104B1A607B685B68184618F02AFC33
:100AD00005E00E4B01221A60FFF794FD00BF00BF36
:100AE00002E078681AF002F82037BD4680BD00BFEA
:100AF000EC3A0B08800A0308B0B40E08C0CEDC0044
:100B00009816002094160020901600209C160020B5
:100B100080B586B002AF78607B681B680E2B04D06E
:100B20000F2B1BD0012B08D032E018F0E5FD034657
:100B30001846796819F05AFB2DE01EF013F8F8609A
:100B40007B685968FB685A10FB685B104120009075
:100B500008461146002217F024FA1CE07B685B6807
:100B6000184618F067FCF8607B685B68184618F058
:100B700075FCB860FB685A1EBB68013B6FF07F4193
:100B80000091064901910020002127F00BF902E0B5
:100B9000786819F0ABFF1037BD4680BDC0CEDC00D1
:100BA00080B582B000AF78607B685B68002B0ED1A7
:100BB0007B681B6818460E2114F002FF7B681B68D7
:100BC0001846002114F00EF800BF002303E07868F7
:100BD00013F0DEFC034618460837BD4680BD00BF53
:100BE00080B584B002AF18F087FD0346184619F0AF
:100BF00075FB28F087F81DF0B5FF78601DF0BAFF8F
:100C0000386018F079FD03467A68A2F150013A681D
:100C10003D3A009101923C4805213C4A16F0AAF960
:100C200002463B4B1A6018F067FD03467A68521083
:100C3000013A00920022019236480221364A16F00B
:100C400099F90246354B1A60344B1B68184618F068
:100C5000B1FB2F4B1B68184619F01EFB18F04CFD1A
:100C60000346184618F053FB25F0F2FF18F044FD38
:100C70000346184618F042FBFF2020F043FB28F003
:100C800041F84FF47F4020F03DFB28F03BF84FF453
:100C90007F0020F037FB28F035F800F0B9FF204B3B
:100CA00000221A6016E0FFF7ADFC00F031FA1D4B90
:100CB0001A681B4B1B689B0013441B6898471A4B10
:100CC00000221A60194B00221A60154B1B685A1C2F
:100CD000134B1A60134B1A68114B1B689B0013448B
:100CE0001B68002BDFD10E4B00221A60084B1B68DB
:100CF000184619F013FB094B1B68184619F00EFB38
:100D00000837BD4680BD00BFA809030829090008AF
:100D10007C160020480A0308110B000880160020EA
:100D200088160020701600208C160020A0160020C7
:100D300080B483B000AF0346FB71FB79002B0CBF7E
:100D400000230123DBB21A46034B1A700C37BD4651
:100D50005DF8047B704700BFA416002080B487B004
:100D600000AF7860396000237B6102E07B6901336A
:100D70007B617B697A6813441B78002BF6D10123D1
:100D8000FB6001233B6108E0FA6813469B001344B3
:100D90005B00FB603B6901333B61FB683A68B2FB77
:100DA000F3F3092BF0D87A693B6913447A6813444A
:100DB00000221A701CE07A693B691344013B7A688F
:100DC000D01839680E4BA3FB0123DA0813469B00A9
:100DD00013445B00CA1AD3B23033DBB203703A68F3
:100DE000074BA3FB0213DB083B603B69013B3B6104
:100DF0003B69002BDFD11C37BD465DF8047B704793
:100E0000CDCCCCCC80B485B000AF78603960002305
:100E1000FB600023BB6002E0FB680133FB60FB6802
:100E20007A6813441B78002BF6D10DE0FB687A68D2
:100E30001344BA6839680A4412781A70FB6801339F
:100E4000FB60BB680133BB60BB683A6813441B7826
:100E5000002BEBD1FB687A68134400221A70143718
:100E6000BD465DF8047B704780B500AF02E00A2004
:100E700020F0A3F9074B1B68012BF8D0064B1B6829
:100E8000012B04D1044B00221A60012300E000234F
:100E9000184680BD981600209C16002080B586B0AC
:100EA00000AF78601F4B1B6818464FF4047118F0B0
:100EB0001EFC78617B68642B01DDFFF7B9FC786963
:100EC00000210EF08BFF786900217A680EF032FE67
:100ED00020F071F903463B6100F04CF803461A46D6
:100EE0003B69D31AFB607B68642B04DDFB6878697F
:100EF00019460EF073FF052020F05FF9FFF7B4FFED
:100F0000B8607A68FB689A4202D9BB68002BE3D0CC
:100F10007B68642B01DDFFF777FC25F099FE18371D
:100F2000BD4680BD7C16002080B582B000AF7860E1
:100F3000034B1B68786898470837BD4680BD00BFE3
:100F40008416002080B483B000AF0346FB80084BBA
:100F50001A89FB8813409BB2002B0CBF002301238E
:100F6000DBB218460C37BD465DF8047B704700BF06
:100F70007016002080B500AF074B1B68002B06D110
:100F800020F019F90246054B1B68D31A01E0044B07
:100F90001B68184680BD00BF9816002090160020E0
:100FA0009416002080B500AF054B1B68184618F05A
:100FB00001FA18F0A1FB0346184616F0E9FE80BDC1
:100FC0007C16002080B500AF054B1B68184618F052
:100FD000F1F918F091FB0346184616F0D9FE80BDD2
:100FE0008016002080B500AF044B1B685A1C034BD1
:100FF0001A60FFF707FB00F08BF880BD8C1600200D
:1010000080B500AF034B1B68184616F0B7FF25F0FC
:101010001FFE80BD7C16002080B584B000AF7860D4
:101020000B4B1B68184618F0ADF90346002B0BD08C
:10103000074B1B6818464FF4B07118F058FBF86066
:10104000F86879680CF0D9FC1037BD4680BD00BF48
:101050008016002080B500AF024B1B68184616F0C2
:101060008DFF80BD8016002080B58AB000AF78600B
:1010700039601DF077FD38621DF07CFDF8613B6A38
:101080005B10BB61FB695B107B61FFF79BFFFFF7A8
:10109000B7FF25F0DDFD0120FFF746FF6FF07F4031
:1010A00020F032F9022020F09DF8174820F0F4F8E3
:1010B0007868B9693C2227F07DFB144820F0ECF8F1
:1010C00028F086FA38617A693B69D31A0A3338689E
:1010D000B9691A4627F06EFB00237B6202E07B6A47
:1010E00001337B627B6A3A6813441B78002BF6D18C
:1010F0007A6A13469B0013441B01FB60F86800F0FA
:101100005FF82837BD4680BDB46A0B0878820E08A8
:1011100080B586B000AF3B4600221A60043300223F
:101120001A60043300221A60043300221A60043368
:1011300000221A6004331B4B1B6818464FF4B07131
:1011400018F0D5FA78613B4618461749FFF75AFE62
:10115000164B1B6801333A4610461946FFF7FEFD51
:101160003B4618461249FFF74DFE124B1B683A46A4
:1011700010461946FFF7F2FD3B4618460E49FFF7A9
:1011800041FE0E4B5B68013B3A4610461946FFF79D
:10119000E5FD3B46786919460CF02FFC1837BD4633
:1011A00080BD00BF7C160020880A03088816002036
:1011B000900A03088C160020940A03087016002079
:1011C00080B582B000AF78607868FFF767FEFFF700
:1011D00009FF0837BD4680BD80B58EB000AF3048EE
:1011E00030491BF085F818F087FA034618462E4957
:1011F00017F0E8F816F078FC3B1D1846002113F0B4
:10120000ADFB0023BB613B1D1846002113F07EFBA4
:101210003B1D1846012113F0A1FB0023BB613B1DC0
:101220001846012113F072FB204813F093FC20486C
:101230000EF060FC1F4816F001FB1F480DF0E0FCAB
:101240001E480CF0E5FF1E4811F09CFC02201FF028
:10125000C9FF1C4805F0F2FF1DF0A4FC78637B6B0E
:101260000F2B14DD0420FFF76DFE0346002B0ED07C
:1012700028F0DEFA38633B6BB3F5001F03DD124B39
:10128000124A1A6006E0104B114A1A6002E00E4B37
:10129000104A1A600120FFF74BFDFFF7A1FCFCE7A5
:1012A000C5080008A016002059080008A10B000876
:1012B0002DF800084575010821E800084DDC0008FC
:1012C000AD2701087016002084160020A90600082A
:1012D000610600083106000880B485B000AF786070
:1012E0000023FB6005E07B6801337B60FB68013312
:1012F000FB607B681B78002BF5D1FB681846143720
:10130000BD465DF8047B704780B500AF02484FF4DE
:10131000A03128F095FA80BD9881002080B584B076
:1013200000AFF860B9607A603B60FA68BB6813444C
:10133000FB600020F9681FF08DFF38681FF03DFF4B
:10134000FFF792FD0346002B01D0012306E07B68E6
:10135000013B7B607B68002BE7D1002318461037E8
:10136000BD4680BD90B58BB002AF684A07F1080357
:1013700092E8030083E803001DF0F4FBB8611DF060
:10138000F9FB786162481FF087FF02201FF02AFFF7
:1013900000233B8000237B80BB699BB2013B9BB257
:1013A0009BB2BB807B699BB2013B9BB29BB2FB8033
:1013B0006FF07F401FF0A8FF3B46564819460E22AB
:1013C00027F0F3F9FA201FF0F8FE7B889AB27B69C8
:1013D0009BB213449BB29BB27B80FB889AB27B6921
:1013E0009BB213449BB29BB2FB803B8818B27B88B4
:1013F00019B2BB881AB2FB881BB26FF07F4400940D
:101400000024019426F0CEFCFB889AB27B69424905
:1014100081FB0301DB17CB1A9BB2D31A9BB29BB2A1
:10142000FB804FF400401FF06FFF3B463B481946DE
:101430000E2227F0BAF97B69394A82FB0312521057
:10144000DB17D31A3B610023FB6137E0FB699B008C
:1014500007F12002134453F8183C002005213A6993
:10146000FFF75CFF0346012B00D14BE000207969B8
:101470001FF0F0FEFA201FF0A0FEFB699B0007F1B1
:101480002000034453F8183C78696FF004013A696E
:10149000FFF744FF0346012B00D133E00020002179
:1014A0001FF0D8FEFA201FF088FEFFF7DDFC034690
:1014B000002B00D026E0FB690133FB61FB69012BA7
:1014C000C4D90023FB6116E0002079691FF0C2FE39
:1014D000C8201FF072FE002000211FF0BBFEC820B4
:1014E0001FF06BFEFFF7C0FC0346002B00D009E0A5
:1014F000FB690133FB61FB69042BE5DD4FF47A7076
:10150000FFF7CCFC2437BD4690BD00BFC40A0308DA
:10151000081F0E08980A030856555555A80A0308CF
:101520006766666680B582B000AF1DF023FB786009
:101530001DF030FB38607B685A003B689A4200DD42
:101540000CE008480849FFF78FFD0120FFF7ECFC8D
:10155000FFF708FF002000211FF07CFE0837BD4682
:1015600080BD00BFCC0A0308DC0A030880B584B044
:1015700000AFF860B9607A60FB68DB695A1CFB68F1
:10158000DA61FB68DA69FB681B699A4202DBFB6877
:101590000022DA61FB681A68FB689B681A44FB68E2
:1015A0001A60FB681A68BB689A420ADDFB685A69D0
:1015B000FB68DB699B0013441B681B885A42FB686D
:1015C0001A60FB681A68FB685969FB68DB699B0055
:1015D0000B441B681B885B429A4202DAFB68BA68BC
:1015E0001A60FB685A68FB68DB681A44FB685A603B
:1015F000FB685B68002B04DAFB68DB685A42FB6817
:10160000DA60FB685A68FB685969FB68DB699B0014
:101610000B441B685B887968CB1A9A4204DDFB682F
:10162000DB685A42FB68DA60FB689869FB685A69B4
:10163000FB68DB699B0013441968FB681A68FB6848
:101640005B6821F0D9FE1037BD4680BD80B586B0FD
:1016500002AF7860784B0093786801210022002364
:101660000BF080FBF860754B009378680121FA68F5
:1016700002230BF077FBB860714B0093786801216F
:10168000BA6801230BF06EFBB86078680021002275
:101690000BF0A5FBF8607868F96804220BF09FFB5B
:1016A000F860684B009378680121FA6802230BF018
:1016B00059FBB860644B009378680121BA68012334
:1016C0000BF050FBB860614B009378680121BA6859
:1016D00001230BF047FBB8605D4B00937868012154
:1016E000BA6801230BF03EFBB8607868F968042201
:1016F0000BF075FBF860574B009378680021FA688F
:1017000002230BF02FFBB860534B00937868002145
:10171000BA6801230BF026FBB860504B0093786841
:101720000021BA6801230BF01DFBB8607868F968E6
:1017300002220BF054FBF860494B009378680021BB
:10174000FA6802230BF00EFBB860464B00937868F2
:101750000021BA6801230BF005FBB860424B0093EF
:1017600078680021BA6801230BF0FCFAB860786849
:10177000F96802220BF033FBF8603C4B0093786869
:101780000021FA6802230BF0EDFAB860384B0093A1
:1017900078680021BA6801230BF0E4FAB860354B91
:1017A000009378680021BA6801230BF0DBFAB86077
:1017B0007868F96802220BF012FBF8602E4B009358
:1017C00078680021FA6802230BF0CCFAB8607868D8
:1017D000F96805220BF003FBF8607868F9680222CB
:1017E0000BF0FDFAF860254B009378680021FA6849
:1017F00002230BF0B7FAB860214B00937868002100
:10180000BA6801230BF0AEFAB860786801210BF0DA
:10181000C0FA786801210BF0C1FA78680021002233
:101820000BF0DDFA034618460BF08EFB786816F0D5
:10183000D9FC1037BD4680BD0412040810120408FC
:101840001C12040824120408281204082C1204088C
:10185000341204083812040840120408481204081C
:101860005412040864120408741204088412040850
:10187000901204089C120408A8120408B412040868
:10188000C012040880B584B000AF78607B685B68E4
:10189000FB607B681B680F2B0BD01D2B0AD1F868EF
:1018A0004FF4107117F023FFB860B868FFF7CEFE51
:1018B00000E000BF1037BD4680BD00BF80B58EB0D0
:1018C00000AFF860B9607A6000237B63FFF752FBDA
:1018D000014659487A6B13465B0013449B0003444E
:1018E0001B680B44FB6254497A6B13465B0013443C
:1018F0009B000B4408331B68002B0BD04E497A6BBE
:1019000013465B0013449B000B4408331B681846C6
:10191000FFF782FBFFF7A8FA0346002B40F0888010
:101920000120FFF70FFB0346002B11D000233B6380
:101930000BE03B6B5A01414B13441846B9687A6877
:10194000FFF714FE3B6B01333B633B6B012BF0D97C
:1019500064201FF032FCFFF70DFB0246FB6A9A423F
:10196000D8DBF8680BF09BFAB86207F11403B86A89
:1019700019460BF0F1FF30497A6B13465B001344B4
:101980009B000B445B68013B072B4AD801A252F82D
:1019900023F000BF031A00080B1A0008131A0008EE
:1019A0001B1A0008D3190008C9190008B519000846
:1019B000BF190008F86800210BF0F5F931E0F8686C
:1019C00001210BF0F0F92CE0F86801210BF086FA08
:1019D00027E07B69002B0ED0BB69002B05D0B86ACD
:1019E0000121174A0BF08BFF1BE0B86A0021154A52
:1019F0000BF085FF15E0B86A0221134A0BF07FFF58
:101A00000FE0F8680BF08EFA0BE0F8680BF098FA2C
:101A100007E0B86A0BF098FA03E0B86A0BF098FA9E
:101A200000BF7B6B01337B637B6B2A2B7FF64EAF52
:101A30003837BD4680BD00BF0010040828000020D4
:101A4000000C03086C0C0308500B030880B59AB017
:101A500002AF3B1D00221A60043300221A600433D7
:101A600000221A60043300221A60043300221A6034
:101A7000043300221A60043300221A600433002267
:101A80001A60043300221A60043300221A600433FF
:101A900000221A60043300221A60043300221A6004
:101AA000043300221A6004334A4B7B604A4BBB600C
:101AB0004A4B3B624FF410733B851DF053F8786539
:101AC0001DF058F838657B6DDA0F13445B109BB23C
:101AD0007B823B6D9BB2BB827B6DDA0F13445B1044
:101AE0009BB2FB853B6D9BB23B8617F005FE034620
:101AF0003A1D002100910021019110460221384A2F
:101B000015F038FAF864F86C17F002FEB864B86C97
:101B100017F090FC7864B86C17F0A0FC3864F86C8F
:101B20004FF4107117F0E3FDF863F86B796C3A6CC1
:101B300016F093FA0120FFF705FA0346002B25D093
:101B40000023FB651FE0274AFB6D5B011344103344
:101B50005B681968234AFB6D5B0113441A682148CE
:101B6000FB6D5B0103445B68084611461A4621F091
:101B70009DFA02461B49FB6D5B010B4418331A604A
:101B8000FB6D0133FB65FB6D012BDCD9F86B796DC7
:101B90003A6DFFF793FE0120FFF7D4F90346002BBF
:101BA00011D00023BB650BE00E4ABB6D5B011344F3
:101BB00018331B68184621F081FABB6D0133BB65F1
:101BC000BB6D012BF0D9F86C18F0A8FB6037BD464F
:101BD00080BD00BF7D4F0108CC120408E9BF00089A
:101BE000851800082800002080B500AF0648074986
:101BF000FFF73AFAFFF72EFA0020FFF795F9FFF703
:101C000025FFFFF7EFF980BDD8120408E812040899
:101C1000B0B58CB000AF5B4B3C1D1D460FCD0FC463
:101C200095E8030020600434217007F119030022B5
:101C30001A70013300221A70013300221A70013326
:101C400000221A70013300221A70013300221A7028
:101C5000013300221A70013300221A70013300226E
:101C60001A7001331CF07EFFF8621CF083FFB8622B
:101C7000FB6A5B107B620020FFF756F902201FF021
:101C8000B1FA6FF07F401FF03FFB3F481FF004FBAD
:101C9000BB6A9B009B113D48796A1A4626F08AFD73
:101CA0003B481FF0F9FABA6A13469B0013445B00E5
:101CB00013449B113748796A1A4626F07BFD364853
:101CC0001FF022FBBB6A162202FB03F39B11334871
:101CD000796A1A4626F06EFD31481FF0DDFABB6ABC
:101CE000162202FB03F39B1112332E48796A1A461F
:101CF00026F060FD6FF07F401FF006FB24481FF0C8
:101D0000CBFA24F011FE03463A1D104619462EF078
:101D1000B9FBBA6A13465B019B1A9B113A1D104628
:101D2000796A1A4626F046FD1F4B1B88FA6AD31AB9
:101D30005A10BB6A262101FB03F39B111B48114675
:101D40001A4626F099FB6FF07F401FF0DDFA184825
:101D50001FF0A2FA7B6A5B00164A82FB0312DB17B4
:101D6000D11ABA6A1346DB009B1ADB009B1112489A
:101D70001A4626F01FFD41F28830FFF78FF8303702
:101D8000BD46B0BDD0130408B46A0B08381304086C
:101D900078820E0840130408FF8822007813040894
:101DA000A4B30E089C1304089CAB0B0884520C08C7
:101DB000544D0B0856555555BC13040880B588B0D2
:101DC00000AF3B4600221A60043300221A6004333D
:101DD00000221A60043300221A60043300221A60C1
:101DE000043300221A60043300221A6004330D48C1
:101DF0000D490022002326F023FEF8610B4B3B60C7
:101E00000B4B7B600B4BFB600B4BBB600B4B7B614D
:101E10000B4BBB613B46F869194603F0DDFF2037E9
:101E2000BD4680BD28E3080850C90E08217000088F
:101E300041700008A9710008D571000861700008A0
:101E40007970000880B586B000AFF860B9607A603C
:101E50004FF0FF337B610948B96801F0FBFEBB68B6
:101E6000012B00D004E005F017F800237B6100BFD0
:101E70007B6918461837BD4680BD00BFF0130408C3
:101E800080B58AB000AF786000233B8100237B815E
:101E90000023BB810023FB817B685B687B627B68DE
:101EA0001B68262B05D0B3F5806F30D00F2B72D076
:101EB00091E07B689B68184617F0D2FB38627B681C
:101EC000DB68FB613B6AB3F5147F00D083E0FB69FC
:101ED000042B00D019E07B689B68184610F052FC78
:101EE000B861786A40F2611117F001FC78613B49F2
:101EF000BA6913465B0013449B000B4408331B680C
:101F0000786919460BF079FD00BF00BF63E0344BE0
:101F10001A68344B1B681A44314B1A60304B1B68EB
:101F2000632B08DD2F4B1B685A422E4B1A602C4B3B
:101F300064221A600BE02A4B1B68142B07DC294B28
:101F40001B685A42274B1A60254B14221A609223B1
:101F50003B81234B1B689BB2053B9BB29BB27B81B1
:101F60003B899AB29E2313449BB2013B9BB29BB226
:101F7000BB817B899AB2962313449BB204339BB2F4
:101F80009BB2FB817B685A6807F10803104619462B
:101F900018F046F91FE01CF0EDFD3861F0231A46F9
:101FA0003B699A4204DA10481FF0ACF926F0AAFE09
:101FB000F0233A69D31ADA0F13445B100B4800215F
:101FC0001A4626F059FA064B1B68094892211A4610
:101FD00026F052FA00BF2837BD4680BDCCDE080887
:101FE000680000206C000020CAC7B20024FB07086C
:101FF00010CB060890B59BB006AF7F487F49FFF72E
:1020000033F8FEF7DFFF17F077FB0346184617F0AB
:1020100075F917F071FB03461846794916F0D2F9A5
:10202000F86317F069FB0346009302230193002332
:1020300002934FF4B0730393724B0493002000217A
:10204000F0221E230BF0F0FDB863B86B6E490BF065
:10205000FCFCB86B0E210BF0BEFCB86B6B490BF0AF
:10206000A8FC17F049FB03460093022301930023C9
:10207000029340F261130393654B0493922028214D
:102080005E2296230BF0D0FD78633B1D6148194614
:10209000614A21F077FC3B1D786B19460BF0D5FCAB
:1020A000786B6FF07F410BF084FC786B01210BF0B3
:1020B0006CFC786B0E210BF08EFC1CF05BFD386322
:1020C0003B6BA3F1280417F017FB0346009303238F
:1020D0000193022302934FF4147303933723049361
:1020E0003C2305930A201E218822234610F0C2FAC1
:1020F000F8620023FB6416E04849FA6C13465B0063
:1021000013449B000B4419684448FA6C13465B0067
:1021100013449B0003445B68F86A1A4610F0BEFA49
:10212000FB6C0133FB64FB6C082BE5D9F86A0121D9
:102130003B4A10F0FDFAF86A3A4910F011FBF86AD0
:1021400016F050F80123BB6400237B64FEF712FFF6
:10215000034603F50C532833BB62FEF70BFF03461F
:1021600003F57A733B6432201FF027F817F0C4FAA6
:10217000034618464FF4806116F039F9FEF7FAFE6F
:1021800002463B6C9A4217DB3B6C03F57A733B6467
:102190007B6C002B02D10123BB6405E07B6C082B18
:1021A00002D14FF0FF33BB647A6CBB6C13447B6489
:1021B000F86A796C10F0F5FAFEF7DCFE0246BB6AAD
:1021C0009A4204DAFEF750FE0346002BCBD0B86BE0
:1021D00018F0A4F8786B18F0A1F8F86A18F09EF8D7
:1021E00017F08AFA03461846F96B16F0EBF8FEF77B
:1021F000F9FE5437BD4690BD38DF080848DF0808AF
:10220000811E000874DF0808544D0B084040FF0091
:102210008CDF080838FB070830C40E08CCDE08083D
:102220000000FFC010A50E0880B582B000AF134BB0
:102230007B60134B3B6007E03B681A1D3A607A688D
:10224000111D796012681A603A680E4B9A42F3D3F6
:102250000D480E494FF000028842B8BF40F8042BE9
:10226000FFF6FAAFDFF82800016841F47001016061
:1022700000F048FB0837BD4680BD00BF70D90E088E
:102280000000002054160020541600208CC30120AA
:1022900088ED00E080B400AF1EF0040F0CBFEFF338
:1022A0000880EFF3098000F001B8FEE780B493B036
:1022B00000AF78607B681B687B647B6804331B68B5
:1022C0003B647B6808331B68FB637B680C331B68CB
:1022D000BB637B6810331B687B637B6814331B68AC
:1022E0003B637B6818331B68FB627B681C331B688D
:1022F000BB620E4B1B687B620D4B1B683B620D4B38
:102300001B68FB610C4B1B68BB610C4B1B687B6142
:102310000B4B1B683B610B4B5B6AFB600A4B1B68FA
:1023200003F00103002B00D000BEFEE738ED00E013
:1023300028ED00E02CED00E030ED00E03CED00E0A9
:1023400034ED00E000ED00E0F0ED00E080B400AF1F
:10235000FEE700BF80B400AFFEE700BF80B400AF6F
:10236000FEE700BF80B400AFFEE700BF80B400AF5F
:10237000FEE700BF80B400AFFEE700BF80B400AF4F
:10238000BD465DF8047B704780B582B000AF042085
:10239000012100F039FB0820012100F035FB012369
:1023A0003B714FF470433B6002237B713B4607480F
:1023B000194605F0B7FC4020012100F043FB012045
:1023C00007F028FD0837BD4680BD00BF000C024065
:1023D00080B58AB006AF78600023FB60012004F06E
:1023E00011FFA94826F008FA4FF4FC6004F00AFF38
:1023F000642001F037FD4FF4784004F003FF6420BF
:1024000001F030FD1F2004F0FDFE642001F02AFDE4
:10241000FEF7E2FE9D4815F011FA9D4812F09AFB76
:10242000002015F043FF9B481EF036FF0023009369
:1024300002230193002302930A230393964B0493F0
:10244000964B059323203221AA22962313F0A4FA57
:102450000246934B1A60924B1B681846914912F042
:102460008FFB8F4B1B6818460121002212F0FEFFE4
:102470008B4B1B6818460121002212F08FFF884BFE
:102480001B6818460121002212F04EFE844B1B6887
:102490001846022113F094FA814B1B680093022323
:1024A000019302230293002303937F4B049305209F
:1024B0001921A02214230BF0B7FB02467B4B1A60B4
:1024C000774B1B680093022301930023029301239F
:1024D0000393774B049305203221A02214230BF0A1
:1024E000A3FB0246734B1A606D4B1B6800930223DB
:1024F000019301230293022303936F4B049305205E
:102500004B21A02214230BF08FFB02466B4B1A6069
:10251000664B1B6818466A490BF097FA654B1B68B7
:10252000184667490BF091FA644B1B6818466449DA
:102530000BF08BFA5A4B1B68009302230193002384
:10254000029300230393052064213222142315F003
:1025500013FB02465B4B1A60514B1B68009302232E
:10256000019300230293012303933C206421322230
:10257000142315F001FB0246534B1A60484B1B68AD
:1025800000930223019300230293022303937320F9
:1025900064213222142315F0EFFA02464B4B1A60E5
:1025A0003F4B1B68009302230193002302930323F4
:1025B000039305207D214D22142315F0DDFA0246F8
:1025C000434B1A60364B1B68009302230193002390
:1025D00002930423039358207D214D22142315F0E8
:1025E000CBFA02463B4B1A60364B1B6818463A49F9
:1025F00015F0D2FA344B1B681846384915F0CCFA5E
:10260000324B1B681846364915F0C6FA304B1B682A
:102610001846344915F0C0FA2E4B1B68184632494B
:1026200015F0BAFA274B1B681846304915F0CAFE58
:10263000254B1B6818462E4915F0C4FE234B1B681A
:1026400018462C4915F0BEFE214B1B6818462A4936
:1026500015F0B8FE1F4B1B681846284915F0B2FE4E
:10266000FB685A1CFA600A2B63D90023FB60244BD9
:102670001B68002B4FD0134B1B6818464FF480711A
:1026800015F0B2FA3EE000BF90DF0808457501087A
:1026900091450108C8430E08A0DF08084927000833
:1026A000ACC1012054A20E08ACDF0808B4C101205F
:1026B000BCDF08089CC10120C8DF0808A8C10120B0
:1026C0004C940E08C4C10120B0C10120A0C101205A
:1026D000BCC10120C0C10120DCDF0808E0DF080820
:1026E000E8DF0808F0DF0808FCDF080861270008B9
:1026F000A1270008E5270008292800088D280008E0
:10270000AC1600200D4B1B68184612F016FB0C4B44
:1027100000221A600DE00B4B1B681846012115F0D2
:1027200063FA064B1B68184612F053FB044B012258
:102730001A6032201EF041FD92E700BFACC10120BB
:10274000AC160020C4C1012080B582B000AF786013
:10275000786813F04DF900BF0837BD4680BD00BF53
:1027600080B584B000AF78607B681B68272B0ED1E2
:102770007B68DB68FB60FB68022B00D00BE0074B3B
:102780001B681846FF210BF014F900BF03E07868BE
:1027900015F03EF900BF1037BD4680BDB4C1012021
:1027A00080B584B000AF78607B681B68272B0FD1A1
:1027B0007B68DB68FB60FB68022B00D00CE0084BF9
:1027C0001B6818464FF47F410BF0F3F800BF03E09D
:1027D000786815F01DF900BF1037BD4680BD00BFF9
:1027E000B4C1012080B584B000AF78607B681B68FD
:1027F000272B0FD17B68DB68FB60FB68022B00D0C6
:102800000CE0084B1B6818464FF47F010BF0D1F821
:1028100000BF03E0786815F0FBF800BF1037BD4635
:1028200080BD00BFB4C1012080B584B000AF786026
:102830007B681B68272B1AD17B68DB68FB60FB6811
:10284000022B00D017E00D4B1B6818460C490BF00B
:10285000FCF80C4B1B68184609490BF0F6F80A4BBC
:102860001B68184606490BF0F0F800BF03E07868D3
:1028700015F0CEF800BF1037BD4680BDB4C10120B1
:1028800000740E089CC10120A8C1012080B584B04D
:1028900000AF78607B681B68272B1AD17B68DB68E8
:1028A000FB60FB68022B00D017E00D4B1B6818463D
:1028B0000C490BF0CAF80C4B1B68184609490BF081
:1028C000C4F80A4B1B68184606490BF0BEF800BF57
:1028D00003E0786815F09CF800BF1037BD4680BD56
:1028E000B4C101204C940E089CC10120A8C1012054
:1028F00080B483B000AF78600C37BD465DF8047BD0
:10290000704700BF90B589B004AFFFF73DFD05F0FB
:10291000A7FB4FF48050012100F076F804F062F933
:102920002F4801F097F92F4801F094F926F028FA82
:102930002D4801F08FF94FF4407007F087FA01201D
:10294000012100F061F801233B720023BB720023D8
:10295000FB7201237B603B1D2448194605F0E2F918
:1029600022480121002205F06BFA0023FB6002E0FF
:10297000FB680133FB60FB68FE2BF9D90923009348
:102980001B4B0193002302930023039319481A4918
:1029900040F6E832002301F0CBF9184B00931848B9
:1029A00032210122012300F0F5FB0246154B1A608B
:1029B000144B1B68002B0CD0124B1C6801F04AFB17
:1029C000034600220092204601211A46002300F00F
:1029D00011FC01F081FA002318461437BD4690BD62
:1029E00008E008081CE0080838E008080000024079
:1029F000A4C10120D12300085CE00808F1280008E8
:102A000068E00808B8C1012080B483B000AF7860E6
:102A10000B46FB70FB78002B06D0094B084A116B64
:102A20007A680A431A6306E0054B054A116B7A6817
:102A3000D2430A401A630C37BD465DF8047B7047E9
:102A40000038024080B483B000AF78600B46FB7062
:102A5000FB78002B06D0094B084A516B7A680A4371
:102A60005A6306E0054B054A516B7A68D2430A4027
:102A70005A630C37BD465DF8047B7047003802404E
:102A800080B483B000AF78600B46FB70FB78002BFE
:102A900006D0094B084A916B7A680A439A6306E0AC
:102AA000054B054A916B7A68D2430A409A630C370A
:102AB000BD465DF8047B70470038024080B483B0A7
:102AC00000AF78600B46FB70FB78002B06D0094BFB
:102AD000084A116C7A680A431A6406E0054B054AF5
:102AE000116C7A68D2430A401A640C37BD465DF80F
:102AF000047B70470038024080B5A0B002AF3A4670
:102B00005023104600211A462DF052FC1CF02AF8E2
:102B100078671CF02FF83867A948AA49FEF7A4FA8D
:102B20000120FEF701FA6FF07F401EF0EDFBA64892
:102B30001EF0B2FB7B6F5B00A44A82FB0312DB1723
:102B4000D31AA34819460C2225F034FEA1481EF0E2
:102B5000A3FBA1480121532225F046FE9F480121F5
:102B6000672225F041FE9E4801217B2225F03CFE94
:102B70009C4801218A2225F037FE9B480121992299
:102B800025F032FE99480121AD2225F02DFE98480E
:102B90000121C12225F028FE96481EF07DFB1CF085
:102BA00001F8F866FB6E3A4610461946FEF7D6F86D
:102BB0003B4618469049FEF725F909201BF098FF7F
:102BC000B866BB6E002B0FD03B4618468B49FEF70C
:102BD00019F9BB6E3A4610461946FEF7BFF83B4658
:102BE00018468749FEF70EF93B6F193B3A461046E7
:102BF0000C211A4625F0F8FDFEF7BCF97866CDE009
:102C0000FEF7B8F902467B6ED31A7E4A82FB0312A6
:102C1000D111DA178A1A4FF4FA6101FB02F29B1AFA
:102C20003B663B6E774A82FB03129211DB17D31A85
:102C3000FB65FB6D744A02FB03F33A6E13443B667B
:102C40003B6EB3F5FA7F00DDA8E03A6E13461B0237
:102C50009B1A6C4A82FB03125211DB17D11AFA6DD0
:102C600013461B029B1A4B40BB65BA6D13461B02F1
:102C700013441B0213447B657B6DC3F1FF1303F503
:102C80007F433B65FF2300937B6D01933C205321E1
:102C90007A6F5C2325F0B8F8FF2300933B6D019316
:102CA0003C205D217A6F662325F0AEF84FF47F4318
:102CB00000937B6D01933C2067217A6F702325F090
:102CC000A3F84FF47F4300933B6D01933C207121A7
:102CD0007A6F7A2325F098F84FF47F0300937B6D89
:102CE00001933C207B217A6F842325F08DF84FF4EB
:102CF0007F0300933B6D01933C2085217A6F8E23E7
:102D000025F082F8414B00937B6D01933C208F218D
:102D10007A6F982325F078F84FF6FF7300933B6D98
:102D200001933C2099217A6FA22325F06DF84FF68C
:102D3000FF7300937B6D01933C20A3217A6FAC233A
:102D400025F062F8324B00933B6D01933C20AD219E
:102D50007A6FB62325F058F82D4B00937B6D0193C5
:102D60003C20B7217A6FC02325F04EF84FF0FF13B7
:102D700000933B6D01933C20C1217A6FCA2325F05B
:102D800043F84FF0FF1300937B6D01933C20CB2160
:102D90007A6FD42325F038F823F05AFFFEF7EAF8CB
:102DA00002467B6ED21A41F26F739A4205DCFEF73F
:102DB0005BF80346002B3FF423AF7837BD4680BD58
:102DC00070E008087CE00808B46A0B0856555555B1
:102DD000F8E0080878820E0804E1080808E108080D
:102DE00010E1080818E1080820E1080828E10808AF
:102DF00030E10808B0B40E0838E1080840E10808DE
:102E000044E10808D34D621018FCFFFF8080800069
:102E100000FFFF0080B58EB000AF1BF0A3FE03469D
:102E20003B631BF0A7FE0346FB6200237B6300238A
:102E3000BB623B6B013B7B6241233B62FB6A3D3BD8
:102E4000FB6123F004FEB86123F0FAFD7861786934
:102E50001EF05AFAFEF78EF83861B86A396A7A6A53
:102E6000FB6923F0BFFE7B6B01337B63FEF782F8C7
:102E7000F8603A696FF063039B1AFA681344002BF9
:102E8000EBDDFA683B69D31AFB607A6ABB6AD31A36
:102E90000133F9693A6A8A1A013202FB03F37A6B49
:102EA00002FB03F3BB60FB68BA68B2FBF3F34FF4B9
:102EB0007A7202FB03F37B60B8691EF025FA7B6827
:102EC00018463837BD4680BD90B59DB000AF3B4633
:102ED00000221A60043300221A60043300221A60B0
:102EE000043300221A60043300221A6004330022E3
:102EF0001A60043300221A60043300221A6004337B
:102F000000221A60043300221A6004331BF02AFEE8
:102F1000B8661BF02FFE78661BF03CFE38663A6EF2
:102F20007B6E9A420EDD00233B8500237B85BB6EC2
:102F30009BB2BB857B6E9BB2FB8507F128031846CD
:102F40001EF0E4F97A487B49FEF78EF80023FB6611
:102F500012E0794BFA6E53F82230184625F05AFFEA
:102F600003461A46FB6E9B0007F170010B4443F8C1
:102F7000382CFB6E0133FB66FB6E072BE9DDFDF79A
:102F8000F9FFF8650023FB668AE0FB6E03F0070398
:102F90009B0007F17002134453F8383C18461EF0AA
:102FA000A7F92DF04FFA0346BA6E93FBF2F2B96E11
:102FB00001FB02F29B1A9AB2BB6ED90F0B445B1055
:102FC0009BB2D31A9BB29BB23B862DF03BFA0346D1
:102FD0007A6E93FBF2F2796E01FB02F29B1A9AB2BF
:102FE0007B6ED90F0B445B109BB2D31A9BB29BB282
:102FF0007B863B8E9CB22DF025FA0346BA6E93FB7E
:10300000F2F2B96E01FB02F29B1A9BB223449BB20F
:1030100014339BB29BB2BB867B8E9CB22DF012FA0E
:1030200003467A6E93FBF2F2796E01FB02F29B1A71
:103030009BB223449BB214339BB29BB2FB863B8E64
:1030400018B27B8E19B2BB8E1AB2FB8E1BB223F064
:10305000C9FDBB8E1AB2BB6E9A4205DBBB6E9BB23A
:10306000013B9BB29BB2BB86FB8E1AB27B6E9A422F
:1030700005DB7B6E9BB2013B9BB29BB2FB863B8E1A
:103080001BB2002B01DA00233B86FB8E1BB2002B08
:1030900001DA0023FB8623F0DBFDFB6E0133FB66C8
:1030A000FDF768FF0246FB6DD21A41F287339A4260
:1030B00005DCFDF7D9FE0346002B3FF466AFFDF7B4
:1030C00091FFFFF7A7FEB86500201EF01FF9002052
:1030D000FDF72AFF6FF07F401EF016F902201EF068
:1030E00081F816481EF0D8F815480521052225F06C
:1030F000C3F93B4618461349FDF784FE3B46184684
:10310000B96DFDF72BFEBB6E5C1023F07BFC034614
:103110007A6ED31A5B103A46104621461A4625F0BD
:1031200049FB4FF47A60FDF7B9FE7437BD4690BD98
:103130006CE1080878E108084CE10808B46A0B085B
:10314000E0780C08A8E1080880B586B004AF002339
:103150007B6000F061FA0C4B1B68002B0FD003233F
:103160000093002301930023029300230393074855
:1031700007494FF48062002300F0DAFD78607B6835
:1031800018460837BD4680BDE0160020E53200082D
:10319000B8E1080880B586B000AFF860B9607A6021
:1031A0003B60BB68002B02D100237B611CE0282020
:1031B00008F028FA78617B69002B15D000F02CFA12
:1031C0007B69FA681A607B69BA689A617B697A6878
:1031D000DA617B693A681A627B693A6A5A627B698A
:1031E0000433184604F0AAFE7B6918461837BD461A
:1031F00080BD00BF80B588B000AFF860B9607A606C
:103200003B600023FB611D4B1B68002B30D0BB686B
:103210003B617B687B61FB68BB61BB68052B1CDC89
:1032200001F0B6FA0346022B0BD1144B1A6807F1D2
:10323000100310461946BA6A002305F01BFBF8611B
:1032400016E00E4B1A6807F11003104619460022CB
:10325000002305F00FFBF8610AE0084B1A6807F13C
:103260001003104619463A68002305F095FBF861F3
:10327000FB6918462037BD4680BD00BFE016002020
:1032800080B586B002AF78603960154B1B68DB688B
:10329000DB68FB60FB680433184604F0B7FEFB688C
:1032A000DB69012B15D1FB689A697B681344F868C8
:1032B00019463A687B6800F0A1F80346012B08D153
:1032C00000230093F86800217A680023FFF792FF3B
:1032D000B860FB685B6AF86898471037BD4680BDE8
:1032E000D816002080B584B000AF786007F10803DD
:1032F000184600F03FF8F860BB68F868194600F01F
:1033000003F800F0BDF8F1E780B584B000AF786055
:10331000396000F013FE07F10803184600F04EF87C
:10332000F860BB68002B1ED13B68002B0AD17A687D
:10333000FB689A4206D800F00FFE7868F968FFF73C
:103340009FFF12E00A4B1A687968FB68CB1A104697
:10335000194605F035FD00F0FFFD0346002B04D1B2
:1033600005F0DAFD01E000F0F7FD1037BD4680BD45
:10337000E016002080B485B000AF78600E4B1B686B
:103380001B68002B14BF00230123DBB21A467B68A5
:103390001A607B681B68002B05D1074B1B68DB6834
:1033A0001B68FB6001E00023FB60FB6818461437D4
:1033B000BD465DF8047B7047D816002080B584B008
:1033C00000AF786000F046FEF8600B4B1B68FA68AF
:1033D0009A4205D200F0CEF87B6801221A6002E022
:1033E0007B6800221A60044BFA681A60FB68184672
:1033F0001037BD4680BD00BFE416002080B586B002
:1034000000AFF860B9607A603B6000237B61FB68C5
:10341000BA685A60FB68FA681A61BA687B689A42AF
:1034200012D87A683B68D21AFB689B699A4202D329
:1034300001237B611BE0104B1A68FB6804331046C4
:10344000194604F0ABFD12E07A683B689A4206D256
:10345000BA683B689A4202D301237B6107E0074BBD
:103460001A68FB6804331046194604F097FD7B691F
:1034700018461837BD4680BDDC160020D81600203F
:1034800080B58AB002AF63E0BB68002B60DB3B69AC
:10349000FB61FB695B69002B04D0FB6904331846B0
:1034A00004F0B4FD3B1D1846FFF788FFB861BB6808
:1034B000092B4CD801A252F823F000BFE5340008D4
:1034C000E5340008E53400084F3500082B350008C6
:1034D00047350008E5340008E53400084F3500089A
:1034E0002B350008FA68FB699B691A44FB68F86988
:1034F0001146BA69FFF782FF0346012B14D1FB691D
:103500005B6AF8699847FB69DB69012B0CD1FA68A3
:10351000FB699B69134400220092F86900211A4656
:103520000023FFF767FE786112E0FA68FB699A6191
:10353000FB699A69BB691344F8691946BA69BB69A2
:10354000FFF75CFF04E0F86908F0E8F800E000BF6E
:10355000074B1A6807F1080310461946002200239A
:1035600005F068FA0346002B8ED12037BD4680BD9A
:10357000E016002080B588B002AF37E0244B1B680E
:10358000DB681B687B61224B1B68DB68DB683B6187
:103590003B690433184604F039FD3B695B6A3869BE
:1035A00098473B69DB69012B20D13B699A697B69AC
:1035B0001344FB60FA687B699A420ED93B69FA684A
:1035C0005A603B693A691A61114B1A683B690433C6
:1035D0001046194604F0E2FC08E000230093386925
:1035E00000217A690023FFF705FEB860084B1B68CD
:1035F0001B68002BC2D1064B1B687B60054B1A6809
:10360000034B1A60034B7A681A601837BD4680BDB9
:10361000D8160020DC16002080B500AF05F08CFC29
:103620000D4B1B68002B13D10C4804F067FC0C48B1
:1036300004F064FC0B4B094A1A600B4B084A1A60F1
:1036400005200C21002205F0DDF80246024B1A602D
:1036500005F082FC80BD00BFE0160020B0160020FF
:10366000C4160020D8160020DC16002080B483B0D9
:1036700000AF0346FB710C37BD465DF8047B704715
:1036800080B483B000AF78600B46FB707B68FA783B
:103690001A70012318460C37BD465DF8047B70474D
:1036A00080B485B000AF786039600023FB600AE029
:1036B0007B685A1C7A603A68511C396012781A701B
:1036C000FB680133FB603B681B78002BF0D1FB6883
:1036D00018461437BD465DF8047B704780B586B048
:1036E00000AFF8607A603B600B46FB7200237B61A1
:1036F0007B68013B7B603B68092B10D93A681E4B05
:10370000A3FB0213DB08FA7AF86811467A68FFF720
:10371000E5FF78617B69FA681344FB6011E00DE016
:10372000FB7AF8681946FFF7ABFFFB680133FB60D3
:103730007B6901337B617B68013B7B607B68002B8D
:10374000EEDC39680C4BA3FB0123DA0813469B001F
:1037500013445B00CA1AD3B23033DBB2F86819469F
:10376000FFF78EFF03467A6913447B617B69184635
:103770001837BD4680BD00BFCDCCCCCC80B586B05F
:1037800000AFF8607A603B600B46FB7200237B6100
:103790003B68002B03DA3B685B423B6101E03B681E
:1037A0003B617B68013B7B603B69092B21D93B680E
:1037B000002B0DDA3A692F4BA3FB0213DB085B42A7
:1037C000FA7AF86811467A68FFF7D8FF78610BE05B
:1037D0003A69284BA3FB0213DB08FA7AF868114612
:1037E0007A68FFF7CBFF78617B69FA681344FB6066
:1037F00026E03B68002B03DA7B68013B7B600EE030
:103800000DE0FB7AF8681946FFF73AFFFB680133D1
:10381000FB607B6901337B617B68013B7B607B687C
:10382000002BEEDC3B68002B0ADAF8682D21FFF74D
:1038300027FF03467A6913447B61FB680133FB6011
:1038400039690C4BA3FB0123DA0813469B00134490
:103850005B00CA1AD3B23033DBB2F8681946FFF7FF
:103860000FFF03467A6913447B617B69184618375A
:10387000BD4680BDCDCCCCCC80B588B002AFF86061
:103880007A600A46FA72BB7200237B617B68013B57
:103890007B603B6A1B09002B12D03B6A1909FA7A3C
:1038A000BB7A0091F86811467A68FFF7E5FF034696
:1038B0007A6913447B617B69FA681344FB6011E009
:1038C0000DE0FB7AF8681946FFF7DAFEFB68013372
:1038D000FB607B6901337B617B68013B7B607B68BC
:1038E000002BEEDC3B6A03F00F03092B0BD83B6A7D
:1038F000DBB203F00F03DBB23033DBB2F8681946FA
:10390000FFF7BEFE19E0BB7A002B0BD03B6ADBB29F
:1039100003F00F03DBB23733DBB2F8681946FFF769
:10392000AFFE0AE03B6ADBB203F00F03DBB25733B2
:10393000DBB2F8681946FFF7A3FE7B6901337B61B0
:103940007B6918461837BD4680BD00BF80B58AB078
:1039500002AFF860B9607A603B600023BB6100236E
:103960007B61FB68002B03D0FB6800221A70F8E033
:10397000F7E07B681B78252B0BD0FB685A1CFA609C
:103980007A68511C796012781A707B6901337B6107
:10399000E7E07B6801331B78252B0BD1FB685A1CB1
:1039A000FA6025221A707B6802337B607B690133E1
:1039B0007B61D6E02023FB770023BB777B68013354
:1039C0007B607B681B78302B05D13023FB777B68CD
:1039D00001337B600FE00EE0BB7F1A469200134478
:1039E0005B00DAB27B681B781344DBB2303BBB77F9
:1039F0007B6801337B607B681B782F2B03D97B6846
:103A00001B78392BE8D9BA7F7B6913441A46BB6807
:103A10009A4205D9BB68DAB27B69DBB2D31ABB77AD
:103A20007B681B78583B202B00F28D8001A252F856
:103A300023F000BF013B0008473B0008473B00085C
:103A4000473B0008473B0008473B0008473B00084E
:103A5000473B0008473B0008473B0008473B00083E
:103A6000313B0008B93A0008473B0008473B0008D3
:103A7000473B0008473B0008B93A0008473B0008AD
:103A8000473B0008473B0008473B0008473B00080E
:103A9000473B0008473B0008473B0008473B0008FE
:103AA0001D3B0008473B0008CF3A0008473B000891
:103AB000473B0008E53A0008BA7F3B68191D3960AA
:103AC0001B68F97FF868FFF759FEB8613EE0BA7FDE
:103AD0003B68191D39601B68F97FF868FFF7FEFD28
:103AE000B86133E0BA7F3B68191D39601968FB7F04
:103AF0000091F86819460023FFF7BEFEB86125E083
:103B0000BA7F3B68191D39601968FB7F0091F8681E
:103B100019460123FFF7B0FEB86117E03B681A1D94
:103B20003A601B68F8681946FFF7BAFDB8610DE006
:103B30003B681A1D3A601B68DBB2F8681946FFF74C
:103B40009FFDB86102E04FF0FF3325E07B68013351
:103B50007B60BB69FA681344FB607A69BB691344F4
:103B60007B617B681B78002B04D07A69BB689A4222
:103B7000FFF4FFAE7A69BB689A4203D2FB68002269
:103B80001A7008E0FB68013BFB60FB6800221A70BA
:103B90007B69013B7B617B6918462037BD4680BD50
:103BA00080B584B000AFF860B9607A60F8686421CD
:103BB000BA687B68FFF7CAFE034618461037BD4651
:103BC00080BD00BFB0B5A6B000AFF860B9607A6044
:103BD000144B07F110041D460FCD0FC40FCD0FC4B9
:103BE0002B68236007F134031846B9687A68FFF739
:103BF000D7FF0346632B09DD0B4B1B68DB6807F11E
:103C000010021046194600F06FF8FEE707F1340382
:103C10001846F96800F068F8034618469837BD461C
:103C2000B0BD00BFC0E108084016002080B582B0DA
:103C300000AF78603960064B1B689B68184679684E
:103C40003A68FFF7BFFF034618460837BD4680BDF8
:103C5000401600200FB480B582B000AF07F1140306
:103C60003B6038693968FFF7E1FF78607B68184688
:103C70000837BD46BDE8804004B070470EB480B53B
:103C800085B000AF786007F12003BB607868F96900
:103C9000BA68FFF785FFF860FB6818461437BD4621
:103CA000BDE8804003B0704780B582B000AF786057
:103CB00039600C4B1B689A683B689A4205D0094BE7
:103CC0001B68DA683B689A4206D17B68DBB218460B
:103CD000FFF7CCFC7B6801E04FF0FF331846083754
:103CE000BD4680BD4016002080B584B000AF78602E
:103CF00039600023FB6012E07B681B781846396846
:103D0000FFF7D2FF0346B3F1FF3F02D14FF0FF337D
:103D10000AE0FB680133FB607B6801337B607B68F2
:103D20001B78002BE8D1FB6818461037BD4680BDD4
:103D300080B58AB002AFF860B9603B601346FB8083
:103D4000FB881846396B00F0C7FCB861BB69002BD3
:103D500065D0BB691A6BFB8803F18043013B9B0074
:103D600013447B617B6923F007037B61FB8800932D
:103D7000B869B968BA6A7B6B00F0B6FB7869F96814
:103D80003A6805F049F80246BB691A60FB6A002BE5
:103D900002D0FB6ABA691A6005F0CEF82B4B1B689B
:103DA0005A1C2A4B1A602A4B1B68002B09D1284B3E
:103DB000BA691A60254B1B68012B0FD100F0DEFB9E
:103DC0000CE0244B1B68002B08D1214B1B68DA6ADE
:103DD000BB6A9A4202D81E4BBA691A601E4B1B6816
:103DE0005A1C1D4B1A60BB69DB6A01229A401B4BAF
:103DF0001B681A43194B1A60BB69DA6A13469B00A9
:103E000013449B00164A1A44BB69043310461946F2
:103E100004F0A0F80123FB6105F09EF802E04FF0EA
:103E2000FF33FB61FB69012B0BD10A4B1B68002B95
:103E300007D0074B1B68DA6ABB6A9A4201D205F0C9
:103E40006BF8FB6918462037BD4680BD241800205A
:103E5000E816002030180020401800202C18002000
:103E6000EC16002080B584B000AF78600023FB60C2
:103E70007B68002B21D000F061F8144B1A687B6836
:103E80001344BB60124B1B680433184604F0BEF8A1
:103E90000346002B0BD10E4B1B68DB6A012202FA92
:103EA00003F3DA430B4B1B681A400A4B1A60B868DD
:103EB00000F0DCFB00F050F8F860FB68002B01D14B
:103EC00005F02AF81037BD4680BD00BF2818002035
:103ED000E81600202C18002080B586B004AF00231F
:103EE00000930023019300230293002303930F48C0
:103EF0000F494FF480620023FFF71AFF78607B6858
:103F0000012B02D1FFF720F978607B68012B09D1E2
:103F100005F034F8074B01221A60074B00221A60A3
:103F200004F0D2FF0837BD4680BD00BFC944000879
:103F3000E4E10808301800202818002080B400AF01
:103F4000044B1B685A1C034B1A60BD465DF8047B8A
:103F5000704700BF4418002080B582B000AF002336
:103F60007B6004F0E9FF334B1B685A1E314B1A602B
:103F7000304B1B68002B55D12F4B1B68002B51D0A9
:103F80002EE02E4BDB68DB683B603B68183318463D
:103F900004F03CF83B680433184604F037F83B68FB
:103FA000DB6A01229A40264B1B681A43244B1A6095
:103FB0003B68DA6A13469B0013449B00214A1A446B
:103FC0003B6804331046194603F0C4FF3B68DA6AC5
:103FD0001D4B1B68DB6A9A4202D31C4B01221A60FC
:103FE000164B1B68002BCCD1194B1B68002B11D032
:103FF0000CE000F041F80346002B02D0134B0122E5
:104000001A60134B1B685A1E114B1A60104B1B6829
:10401000002BEED10D4B1B68012B03D101237B60DC
:1040200004F07AFF04F098FF7B6818460837BD4615
:1040300080BD00BF4418002024180020E417002091
:104040002C180020EC160020E8160020381800205C
:104050003418002080B582B000AF04F06DFF054B2E
:104060001B687B6004F078FF7B6818460837BD4604
:1040700080BD00BF2818002080B586B000AF0023A7
:104080007B614D4B1B68002B40F084804B4B1B68C1
:104090005A1C4A4B1A60494B1B683B613B69002B19
:1040A00010D1474B1B68FB60464B1A68444B1A60A3
:1040B000444BFA681A60444B1B685A1C424B1A6006
:1040C00000F042FB414B1B683A699A424DD33C4B8E
:1040D0001B681B68002B01D1012300E00023002B8B
:1040E00004D03A4B4FF0FF321A603EE0344B1B686D
:1040F000DB68DB68BB60BB685B687B603A697B68D8
:104100009A4203D2314B7A681A602EE0BB680433BE
:10411000184603F07BFFBB689B6A002B04D0BB688A
:104120001833184603F072FFBB68DB6A01229A401D
:10413000274B1B681A43264B1A60BB68DA6A134682
:104140009B0013449B00234A1A44BB680433104667
:10415000194603F0FFFEBB68DA6A1F4B1B68DB6A77
:104160009A4201D301237B61B1E71B4B1B68DA6ADA
:10417000184913469B0013449B000B441B68012BFA
:1041800001D901237B61154B1B68002B09D1FEF778
:10419000F5F806E0114B1B685A1C104B1A60FEF72D
:1041A000EDF80F4B1B68002B01D001237B617B696D
:1041B00018461837BD4680BD441800202818002036
:1041C000DC170020E01700203C18002070000020C1
:1041D0002C180020EC160020E816002034180020CF
:1041E0003818002080B485B000AF1C4B1B68002B32
:1041F00003D01B4B01221A602AE0194B00221A60DF
:10420000184B1B687B607B68B3FA83F3FB70FB7809
:10421000C3F11F03FB60FA6813469B0013449B0025
:10422000114A1344BB60BB685B685A68BB685A603C
:10423000BB685A68BB6808339A4204D1BB685B68A4
:104240005A68BB685A60BB685B68DA68074B1A60DB
:104250001437BD465DF8047B704700BF441800204A
:10426000381800202C180020EC160020E81600203A
:1042700080B584B000AF78603960194B1B68183383
:104280007868194603F08AFE154B1B6804331846FC
:1042900003F0BCFE0346002B0BD1114B1B68DB6AFD
:1042A000012202FA03F3DA430E4B1B681A400D4B4E
:1042B0001A603B68B3F1FF3F07D1094B1B68043319
:1042C0000948194603F046FE07E0084B1A683B68A8
:1042D0001344FB60F86800F0C9F91037BD4680BD93
:1042E000E81600202C1800201018002028180020A4
:1042F00080B584B000AF78603960134B1B68183309
:104300007868194603F026FE0F4B1B6804331846E5
:1043100003F07CFE0346002B0BD10B4B1B68DB6AC2
:10432000012202FA03F3DA43084B1B681A40074BD9
:104330001A60074B1A683B681344FB60F86800F08A
:1043400095F91037BD4680BDE81600202C180020D6
:104350002818002080B584B000AF78607B68DB68E7
:10436000DB68BB60BB681833184603F04FFE1D4B7B
:104370001B68002B1CD1BB680433184603F046FEB3
:10438000BB68DB6A01229A40174B1B681A43164B25
:104390001A60BB68DA6A13469B0013449B00134AF9
:1043A0001A44BB6804331046194603F0D3FD05E0F8
:1043B000BB6818330E48194603F0CCFDBB68DA6AB7
:1043C0000C4B1B68DB6A9A4205D90123FB600A4B40
:1043D00001221A6001E00023FB60FB6818461037D9
:1043E000BD4680BD441800202C180020EC1600208B
:1043F000E4170020E81600203818002080B483B0AD
:1044000000AF7860064B1A687B681A60054B1A6823
:104410007B685A600C37BD465DF8047B704700BF6F
:104420003C1800202818002080B584B000AF7860C8
:10443000396004F081FD1C4B1B68BB603B681B6846
:10444000B3F1FF3F02D10023FB6026E07B681A68CE
:10445000164B1B689A4207D07B685A68BB689A4221
:1044600002D80123FB6018E07B685B68BA68D21A47
:104470003B681B689A420ED23B681A687B68596891
:10448000BB68CB1A1A443B681A607868FFF7B6FF1E
:104490000023FB6001E00123FB6004F05DFDFB688D
:1044A00018461037BD4680BD281800203C18002053
:1044B00080B400AF034B01221A60BD465DF8047B57
:1044C000704700BF3818002080B582B000AF786018
:1044D00000F092F8034B1B68012B01D904F01CFD7E
:1044E000F6E700BFEC16002080B586B000AFF8609C
:1044F000B9607A603B6000237B6112E0BA687B6937
:1045000013441A78F9687B690B4430331A71BA681E
:104510007B6913441B78002B00D105E07B690133D4
:104520007B617B690F2BE9D9FB68002283F843206C
:104530007B68092B01D909237B60FB687A68DA6202
:10454000FB687A685A64FB6800229A64FB6804334B
:10455000184603F0F3FCFB681833184603F0EEFC32
:10456000FB68FA681A617B68C3F10A02FB689A610A
:10457000FB68FA685A621837BD4680BD80B582B0C4
:1045800000AF00237B600CE07A6813469B00134465
:104590009B00114A1344184603F0B0FC7B680133BA
:1045A0007B607B68092BEFD90C4803F0A7FC0C4813
:1045B00003F0A4FC0B4803F0A1FC0B4803F09EFCA5
:1045C0000A4803F09BFC0A4B044A1A60094B044A50
:1045D0001A600837BD4680BDEC160020B4170020D5
:1045E000C8170020E4170020F8170020101800203A
:1045F000DC170020E017002080B582B000AF28E073
:10460000FFF79CFC164B1B68002B14BF00230123F3
:10461000DBB27B60FFF7A0FC7B68002B19D104F0B4
:104620008BFC0F4BDB68DB683B603B680433184650
:1046300003F0ECFC0B4B1B685A1E0A4B1A600A4B2A
:104640001B685A1E084B1A6004F086FC386800F09C
:104650006BF8054B1B68002BD2D10837BD4680BDD7
:10466000F8170020241800200C18002080B582B014
:1046700000AF7860134B1B687A685A60124B1B6856
:104680007A689A4209D2114B1A680E4B1B680433A0
:104690001046194603F082FC10E00D4B1A68094BD6
:1046A0001B6804331046194603F078FC094B1B685D
:1046B0007A689A4202D2074B7A681A600837BD4678
:1046C00080BD00BFE816002028180020E017002059
:1046D000DC1700207000002080B584B000AF0346D6
:1046E0003960FB804C2006F08DFFF860FB68002BE2
:1046F00015D03B68002B06D1FB889B00184606F0BE
:1047000081FF034600E03B68FA681363FB681B6B9C
:10471000002B04D1F86807F001F80023FB60FB6868
:1047200018461037BD4680BD80B582B000AF7860B6
:104730007B681B6B184606F0F1FF786806F0EEFF09
:104740000837BD4680BD00BF80B483B000AF0E4BBC
:104750001B681B68002B01D1012300E00023002B04
:1047600004D00A4B4FF0FF321A6008E0064B1B687A
:10477000DB68DB687B607B685A68044B1A600C3727
:10478000BD465DF8047B7047DC17002070000020F8
:1047900080B483B000AF0B4B1B68002B02D1012308
:1047A0007B6008E0084B1B68002B02D102237B6072
:1047B00001E000237B607B6818460C37BD465DF83E
:1047C000047B7047301800204418002080B584B066
:1047D00000AF78607B68FB607B68002B62D0FB6871
:1047E000DA6A324B1B68DB6A9A425BD2FB689B69D0
:1047F000002B06DB2D4B1B68DB6AC3F10A02FB684A
:104800009A61FB685969FB68DA6A13469B00134496
:104810009B00274A1344994201D1012300E0002361
:10482000002B3AD0FB680433184603F0EFFB034635
:10483000002B15D1FB68DA6A1D4913469B0013440F
:104840009B000B441B68002B0AD1FB68DB6A01222A
:1048500002FA03F3DA43174B1B681A40154B1A6030
:10486000124B1B68DA6AFB68DA62FB68DB6A0122BA
:104870009A40104B1B681A430E4B1A60FB68DA6AA9
:1048800013469B0013449B00094A1A44FB680433F7
:104890001046194603F05EFB04E0044B1B68DA6A1D
:1048A000FB68DA621037BD4680BD00BFE816002005
:1048B000EC1600202C18002080B584B000AF786082
:1048C0007B68BB600023FB607B68002B4FD0BB681C
:1048D0009B6C5A1EBB689A64BB68DA6ABB685B6CE7
:1048E0009A4244D0BB689B6C002B40D1BB68043318
:1048F000184603F08BFB0346002B15D1BB68DA6A20
:104900001D4913469B0013449B000B441B68002B5E
:104910000AD1BB68DB6A012202FA03F3DA43174BC0
:104920001B681A40154B1A60BB685A6CBB68DA6288
:10493000BB68DB6AC3F10A02BB689A61BB68DB6AC9
:1049400001229A400D4B1B681A430C4B1A60BB683E
:10495000DA6A13469B0013449B00074A1A44BB685B
:1049600004331046194603F0F5FA0123FB60FB6897
:1049700018461037BD4680BDEC1600202C180020CC
:1049800080B400AF074B1B68002B04D0054B1B689D
:104990009A6C01329A64034B1B681846BD465DF859
:1049A000047B7047E816002080B586B000AFF86041
:1049B000B9607A603B600C48FFF74CF9FB689B6874
:1049C0007B61BB6898B27B6899B2BB689AB27B681E
:1049D0009BB202F06BFB7B69DB683A6892B21046CF
:1049E00098471837BD4680BDECE1080880B588B00F
:1049F00000AFF860B9607A601448FFF72BF9FB68E4
:104A00009B68FB61BB6898B27B6899B2BB689AB23D
:104A10007B689BB202F04AFBFB691B6A07F110023C
:104A20001046032198477B8A03F478427B8A03F07F
:104A3000FC03DB001A43BB8ADB0A9BB21343BB6156
:104A4000BB6918462037BD4680BD00BF00E208089C
:104A500080B586B000AFF860B9607A600C48FFF7A7
:104A6000F9F8F868B9687A68FFF7C0FF7861FB6801
:104A70001B699B68984738617A693B695340F868BD
:104A8000B9687A68FFF790FF1837BD4680BD00BF50
:104A900014E2080880B586B000AFF860B9607A60AB
:104AA0003B602648FFF7D6F8254B1B681B7C03F0BC
:104AB0000103002B0DD007E0F868B9687A68FFF7AA
:104AC000C7FFBB680133BB60BA683B689A42F3DD3D
:104AD00030E01B4B1B68DB6B1B687B613A68BB6873
:104AE000D31A022B0EDC08E07B69F868B9687A6893
:104AF000FFF75AFFBB680133BB60BA683B689A4254
:104B0000F2DD17E0FB689B683B61BB6898B27B688D
:104B100099B23B689AB27B689BB202F0C7FA3B69D4
:104B20005B697A6991B23868BA68821A01320846BC
:104B3000114698471837BD4680BD00BF20E20808DF
:104B40004811002080B586B000AFF860B9607A6087
:104B50003B602648FFF77EF8254B1B681B7C03F063
:104B60000103002B0DD007E0F868B9687A68FFF7F9
:104B70006FFF7B6801337B607A683B689A42F3DDA4
:104B800030E01B4B1B68DB6B1B687B613A687B6802
:104B9000D31A022B0EDC08E07B69F868B9687A68E2
:104BA000FFF702FF7B6801337B607A683B689A42BB
:104BB000F2DD17E0FB689B683B61BB6898B27B68DD
:104BC00099B2BB689AB23B689BB202F06FFA3B693C
:104BD0005B697A6991B238687A68821A013208464C
:104BE000114698471837BD4680BD00BF30E208081F
:104BF0004811002080B58AB002AFF860B9607A60D1
:104C00003B60BB6A00932148B9687A683B68FFF74C
:104C100021F81F4B1B681B7C03F00103002B0ED0F7
:104C200008E0F868B9687A683B68FFF733FF7B688B
:104C300001337B607A68BB6A9A42F2DD23E0144B51
:104C40001B68DB6B1B68FB613A68BB68D31A0133D6
:104C5000B96A7A688A1A013202FB03F3BB61FB6806
:104C60009B687B61BB6898B27B6899B23B689AB2DB
:104C7000BB6A9BB202F01AFA7B695B69FA6992B26D
:104C80001046B96998472037BD4680BD40E2080804
:104C90004811002080B58CB000AFF860B9607A6030
:104CA0003B60FB689B683B62BA687B6C1344BB60EB
:104CB000BA683B681344013BFB617A68BB6B1344E1
:104CC000013BBB61BB6898B27B6899B2FB699AB241
:104CD000BB699BB202F0EAF9BB6C1B687B61BB6CE1
:104CE0005B683B6100237B603BE07B6C7B623B6CE1
:104CF000BB62BB6A1B78FB620023BB6026E080229C
:104D00007B6A42FA03F31A46FB6A1340002B06D073
:104D10003B6ADB683A6992B21046984705E03B6A05
:104D2000DB687A6992B2104698477B6A01337B62EE
:104D30007B6A082B07D100237B62BB6A0133BB620D
:104D4000BB6A1B78FB62BB680133BB60BA683B6817
:104D50009A42D4DBFB6B3A6C13443B647B680133AF
:104D60007B607A68BB6B9A42BFDB3037BD4680BD43
:104D700080B58CB000AFF860B9607A603B60BA680B
:104D80007B6C1344BB60BA683B681344013BBB6156
:104D90007A68BB6B1344013B7B61BB6C5B683B6116
:104DA0007B683B6234E07B6CFB613B6CBB62BB6A43
:104DB0001B78FB62BB687B621FE08022FB6942FAC2
:104DC00003F31A46FB6A1340002B05D03B69F868D1
:104DD000796A3A6AFFF7E8FDFB690133FB61FB6919
:104DE000082B07D10023FB61BB6A0133BB62BB6A9E
:104DF0001B78FB627B6A01337B627A6ABB699A42E9
:104E0000DBDDFB6B3A6C13443B643B6A01333B6272
:104E10003A6A7B699A42C6DD3037BD4680BD00BF25
:104E200080B58EB000AFF860B9607A603B60BA6858
:104E3000FB6C1344BB60BA683B681344013B3B62A4
:104E40007A683B6C1344013BFB61FB681B699B6800
:104E50009847B8617B68BB623CE0FB6C7B62BB6CD3
:104E60003B633B6B1B787B63BB68FB6227E0802264
:104E70007B6A42FA03F31A467B6B1340002B0DD07A
:104E8000F868F96ABA6AFFF7B1FD78617A69BB69B7
:104E90005340F868F96ABA6AFFF786FD7B6A013306
:104EA0007B627B6A082B07D100237B623B6B01335B
:104EB0003B633B6B1B787B63FB6A0133FB62FA6AE3
:104EC0003B6A9A42D3DD7B6CBA6C1344BB64BB6A09
:104ED0000133BB62BA6AFB699A42BEDD3837BD4610
:104EE00080BD00BF80B58AB006AFF860B9607A6057
:104EF0003B60254B1B681B7C03F0030323481946CA
:104F0000FEF7A8FE204B1B681B7C03F00303012B5C
:104F100025D0022B12D0002B32D1BB690093FB6944
:104F200001933B6A02937B6A0393BB6A0493F8681C
:104F3000B9687A683B68FFF7ADFE21E0BB69009372
:104F4000FB6901933B6A02937B6A0393BB6A0493F8
:104F5000F868B9687A683B68FFF70AFF10E0BB6938
:104F60000093FB6901933B6A02937B6A0393BB6ADC
:104F70000493F868B9687A683B68FFF751FF00BF8F
:104F80001037BD4680BD00BF481100205CE2080814
:104F900080B58CB000AFF860B9607A603B60FB68A8
:104FA0009B683B62BA687B6C1344BB60BA683B6821
:104FB0001344013BFB617A68BB6B1344013BBB614B
:104FC000BB6898B27B6899B2FB699AB2BB699BB225
:104FD00002F06CF8BB6C002B49D000237B6041E0F1
:104FE0007B6C7B623B6CBB62BB6A1B78FB62002301
:104FF000BB602CE07B6AC3F103035B007B617B69D0
:10500000C3F10603C02242FA03F31A46FB6A1A40B0
:105010007B6922FA03F33B613B6ADB683A699200E1
:10502000B96C0A44126892B2104698477B6A013301
:105030007B627B6A042B07D100237B62BB6A01334E
:10504000BB62BB6A1B78FB62BB680133BB60BA689A
:105050003B689A42CEDBFB6B3A6C13443B647B6843
:1050600001337B607A68BB6B9A42B9DB44E0002372
:105070007B603DE07B6C7B623B6CBB62BB6A1B78F8
:10508000FB620023BB6028E07B6AC3F103035B0083
:105090007B617B69C3F10603C02242FA03F31A461F
:1050A000FB6A1A407B6922FA03F33B613B6ADB68C7
:1050B0003A6992B2104698477B6A01337B627B6AF9
:1050C000042B07D100237B62BB6A0133BB62BB6A3E
:1050D0001B78FB62BB680133BB60BA683B689A42CD
:1050E000D2DBFB6B3A6C13443B647B6801337B601F
:1050F0007A68BB6B9A42BDDB3037BD4680BD00BFCE
:1051000080B58EB000AFF860B9607A603B60BA6875
:10511000FB6C1344BB60BA683B681344013B3B62C1
:105120007A683B6C1344013BFB613B6D002B4CD018
:105130007B68BB6244E0FB6C7B62BB6C3B633B6B9C
:105140001B787B63BB68FB622FE07B6AC3F10303C0
:105150005B00BB61BB69C3F10603C02242FA03F3E3
:105160001A467B6B1A40BB6922FA03F37B617B69A9
:10517000002B09D07B699B003A6D13441B68F868CB
:10518000F96ABA6AFFF710FC7B6A01337B627B6ABB
:10519000042B07D100237B623B6B01333B633B6BEA
:1051A0001B787B63FB6A0133FB62FA6A3B6A9A42B3
:1051B000CBDD7B6CBA6C1344BB64BB6A0133BB624E
:1051C000BA6AFB699A42B6DD47E07B68BB6240E0A1
:1051D000FB6C7B62BB6C3B633B6B1B787B63BB688C
:1051E000FB622BE07B6AC3F103035B00BB61BB691D
:1051F000C3F10603C02242FA03F31A467B6B1A403E
:10520000BB6922FA03F37B617B69002B05D0F86848
:10521000F96ABA6A7B69FFF7C7FB7B6A01337B6275
:105220007B6A042B07D100237B623B6B01333B631A
:105230003B6B1B787B63FB6A0133FB62FA6A3B6A58
:105240009A42CFDD7B6CBA6C1344BB64BB6A0133FA
:10525000BB62BA6AFB699A42BADD3837BD4680BD87
:1052600080B58AB006AFF860B9607A603B60174BD2
:105270001B681B7C03F00203002B02D0022B11D011
:1052800021E0BB690093FB6901933B6A02937B6A4F
:105290000393BB6A0493F868B9687A683B68FFF7C0
:1052A00077FE10E0BB690093FB6901933B6A0293B0
:1052B0007B6A0393BB6A0493F868B9687A683B68B1
:1052C000FFF71EFF00BF1037BD4680BD481100200C
:1052D00080B58CB000AFF860B9607A603B60FB6865
:1052E0009B683B62BA687B6C1344BB60BA683B68DE
:1052F0001344013BFB617A68BB6B1344013BBB6108
:10530000BB6898B27B6899B2FB699AB2BB699BB2E1
:1053100001F0CCFEBB6C002B49D000237B6041E048
:105320007B6C7B623B6CBB62BB6A1B78FB620023BD
:10533000BB602CE07B6AC3F101039B007B617B694E
:10534000C3F10403F02242FA03F31A46FB6A1A403F
:105350007B6922FA03F33B613B6ADB683A6992009E
:10536000B96C0A44126892B2104698477B6A0133BE
:105370007B627B6A022B07D100237B62BB6A01330D
:10538000BB62BB6A1B78FB62BB680133BB60BA6857
:105390003B689A42CEDBFB6B3A6C13443B647B6800
:1053A00001337B607A68BB6B9A42B9DB44E000232F
:1053B0007B603DE07B6C7B623B6CBB62BB6A1B78B5
:1053C000FB620023BB6028E07B6AC3F101039B0002
:1053D0007B617B69C3F10403F02242FA03F31A46AE
:1053E000FB6A1A407B6922FA03F33B613B6ADB6884
:1053F0003A6992B2104698477B6A01337B627B6AB6
:10540000022B07D100237B62BB6A0133BB62BB6AFC
:105410001B78FB62BB680133BB60BA683B689A4289
:10542000D2DBFB6B3A6C13443B647B6801337B60DB
:105430007A68BB6B9A42BDDB3037BD4680BD00BF8A
:1054400080B58EB000AFF860B9607A603B60BA6832
:10545000FB6C1344BB60BA683B681344013B3B627E
:105460007A683B6C1344013BFB613B6D002B4CD0D5
:105470007B68BB6244E0FB6C7B62BB6C3B633B6B59
:105480001B787B63BB68FB622FE07B6AC3F101037F
:105490009B00BB61BB69C3F10403F02242FA03F332
:1054A0001A467B6B1A40BB6922FA03F37B617B6966
:1054B000002B09D07B699B003A6D13441B68F86888
:1054C000F96ABA6AFFF770FA7B6A01337B627B6A1A
:1054D000022B07D100237B623B6B01333B633B6BA9
:1054E0001B787B63FB6A0133FB62FA6A3B6A9A4270
:1054F000CBDD7B6CBA6C1344BB64BB6A0133BB620B
:10550000BA6AFB699A42B6DD47E07B68BB6240E05D
:10551000FB6C7B62BB6C3B633B6B1B787B63BB6848
:10552000FB622BE07B6AC3F101039B00BB61BB699B
:10553000C3F10403F02242FA03F31A467B6B1A40CC
:10554000BB6922FA03F37B617B69002B05D0F86805
:10555000F96ABA6A7B69FFF727FA7B6A01337B62D3
:105560007B6A022B07D100237B623B6B01333B63D9
:105570003B6B1B787B63FB6A0133FB62FA6A3B6A15
:105580009A42CFDD7B6CBA6C1344BB64BB6A0133B7
:10559000BB62BA6AFB699A42BADD3837BD4680BD44
:1055A00080B58AB006AFF860B9607A603B60174B8F
:1055B0001B681B7C03F00203002B02D0022B11D0CE
:1055C00021E0BB690093FB6901933B6A02937B6A0C
:1055D0000393BB6A0493F868B9687A683B68FFF77D
:1055E00077FE10E0BB690093FB6901933B6A02936D
:1055F0007B6A0393BB6A0493F868B9687A683B686E
:10560000FFF71EFF00BF1037BD4680BD48110020C8
:1056100080B588B000AFF860B9607A603B60FB6825
:105620009B68FB61BA683B681344013BBB617A68C5
:10563000BB6A1344013B7B61BB6898B27B6899B23B
:10564000BB699AB27B699BB201F030FD7B6B002B8A
:1056500027D000237B601FE00023BB6011E0BB6804
:105660003A6B13441B789B007A6B13441B683B61B5
:10567000FB69DB683A6992B210469847BB68013310
:10568000BB60BA683B689A42E9DBFB6A3A6B134439
:105690003B637B6801337B607A68BB6A9A42DBDBE1
:1056A00022E000237B601BE00023BB600DE0BB68B1
:1056B0003A6B13441B783B61FB69DB683A6992B231
:1056C00010469847BB680133BB60BA683B689A4292
:1056D000EDDBFB6A3A6B13443B637B6801337B6011
:1056E0007A68BB6A9A42DFDB2037BD4680BD00BFC7
:1056F00080B58AB000AFF860B9607A603B60BA6884
:105700003B681344013BBB617A683B6B1344013B2C
:105710007B61FB6B002B2FD07B683B6227E0BB6873
:105720007B620023FB6117E0FB69BA6B13441B78B3
:105730003B613B69002B09D03B699B00FA6B13442A
:105740001B68F868796A3A6AFFF72EF97B6A0133B9
:105750007B62FB690133FB617A6ABB699A42E3DDD4
:105760007B6BBA6B1344BB633B6A01333B623A6A9F
:105770007B699A42D3DD2AE07B683B6223E0BB6809
:105780007B620023FB6113E0FB69BA6B13441B7857
:105790003B613B69002B05D03B69F868796A3A6A3E
:1057A000FFF702F97B6A01337B62FB690133FB611E
:1057B0007A6ABB699A42E7DD7B6BBA6B1344BB63C1
:1057C0003B6A01333B623A6A7B699A42D7DD2837EC
:1057D000BD4680BD80B588B004AFF860B9607A601E
:1057E0003B60154B1B681B7C03F00203002B02D0AF
:1057F000022B0FD01DE0BB690093FB6901933B6A4C
:1058000002937B6A0393F868B9687A683B68FFF78C
:10581000FFFE0EE0BB690093FB6901933B6A0293B4
:105820007B6A0393F868B9687A683B68FFF760FFA2
:1058300000BF1037BD4680BD4811002080B588B03C
:1058400000AFF860B9607A603B60FB689B68FB6101
:10585000BA683B681344013BBB617A68BB6A134476
:10586000013B7B61BB6898B27B6899B2BB699AB215
:105870007B699BB201F01AFC00237B600BE0FB69A3
:105880001B69386B39689847FB6A3A6B13443B6372
:105890007B6801337B607A68BB6A9A42EFDB203712
:1058A000BD4680BD80B58AB006AFF860B9607A6049
:1058B0003B607B6A1B783A680092BA6901923A6A47
:1058C00002920393BB6A04933F48F969BA687B6804
:1058D000FEF7C0F9FB69013B0F2B72D801A252F809
:1058E00023F000BF2559000847590008C359000894
:1058F00069590008C3590008C3590008C359000872
:105900008B590008C3590008C3590008C35900083F
:10591000C3590008C3590008C3590008C3590008F7
:10592000A9590008BB6900933B6A01937B6A029303
:10593000BB6A0393FB6A0493F868B9687A683B68AA
:10594000FFF7D0FA3DE0BB6900933B6A01937B6AA5
:105950000293BB6A0393FB6A0493F868B9687A6898
:105960003B68FFF77DFC2CE0BB6900933B6A019329
:105970007B6A0293BB6A0393FB6A0493F868B96875
:105980007A683B68FFF70CFE1BE0BB6900933B6A3B
:1059900001937B6A0293FB6A0393F868B9687A689B
:1059A0003B68FFF717FF0CE0BB6900933B6A01936C
:1059B0007B6A0293F868B9687A683B68FFF73EFF34
:1059C00000BF1037BD4680BD6CE2080880B584B0CA
:1059D00000AF78601B48FEF73DF97B689B68002BA1
:1059E00024D1242024F08CF802467B689A607B68DE
:1059F0009B68FB60FB6800221A80FB68EF229A809C
:105A0000FB6800225A80FB6840F28F12DA80FB6844
:105A100000229A60FB680022DA60FB6800221A61AB
:105A2000FB680022DA61FB6800221A627B689B68CF
:105A3000002B14BF00230123DBB218461037BD46EC
:105A400080BD00BFA4E2080880B582B000AF7860D6
:105A500039602E483968FEF7FDF83B68013B0E2B94
:105A60004DD801A252F823F0A55A0008A95A0008FF
:105A7000AF5A0008B35A0008FF5A0008FF5A00083E
:105A8000FF5A0008B95A0008CD5A0008E75A000822
:105A9000EB5A0008EF5A0008F35A0008F75A0008BA
:105AA000FB5A0008F0232CE04FF4C87329E0F023E0
:105AB00027E04FF4C87324E07B681B699B68984714
:105AC0000346184619F0B7F803461AE07B681B69CD
:105AD0009B6898470346184619F0ADF80346012223
